:04000000FEEFFFF020
:10260000000A0D566F6C74616A65203D20256620B6
:10261000202000696E66006E616E0000000E0501EC
:10262000DA6F3BC5DDF53CC5DEF53DC5DFF53EC5E2
:10263000E0F5E0BF20EF13F01EEF13F034EF13F0DE
:10264000010EDA6FDDC501F5DEC502F5DFC503F564
:10265000E0C504F5A7EC25F001C5DDF502C5DEF502
:1026600003C5DFF504C5E0F5000E0501DC6F000EC3
:10267000DB6F59C5CAF55AC5CBF5DA51D8B443EF6B
:1026800013F045EF13F059EF13F0DA51D8A44BEFE4
:1026900013F04DEF13F053EF13F0000EC06F2B0E3D
:1026A000BF6F57EF13F0000EC06F2D0EBF6FBFC589
:1026B000DAF5DDC501F5DEC502F5DFC503F5E0C5D8
:1026C00004F560EC22F001040210D8A46AEF13F0C4
:1026D0006CEF13F09FEF13F00501DA51D8B473EFEC
:1026E00013F075EF13F07EEF13F0DAC569F5CA0742
:1026F000D8A0CB07000EDC6F010EDB6F690EDB2567
:10270000016E050EDC21026E130E036E260E046EA2
:1027100063EC25F00501FD0ECA27FF0ECB2339C55A
:1027200013F53AC514F5690E156E050E166ECAC579
:1027300017F5CBC518F51BEC24F01EEF18F0DDC51E
:1027400001F5DEC502F5DFC503F5E0C504F560EC73
:1027500022F001500210D8A4B0EF13F0B2EF13F042
:10276000E5EF13F00501DA51D8B4B9EF13F0BBEF80
:1027700013F0C4EF13F0DAC569F5CA07D8A0CB0788
:10278000000EDC6F010EDB6F690EDB25016E050E9E
:10279000DC21026E170E036E260E046E63EC25F02C
:1027A0000501FD0ECA27FF0ECB2339C513F53AC527
:1027B00014F5690E156E050E166ECAC517F5CBC554
:1027C00018F51BEC24F01EEF18F0000E0501E16F68
:1027D000000EE26F800EE36F3F0EE46F000EC96FD4
:1027E000000EC86FDDC501F5DEC502F5DFC503F5D6
:1027F000E0C504F5000E056E000E066E000E076EB5
:10280000000E086E35EC23F0D8B009EF14F00BEF92
:1028100014F0EAEF14F018EF14F0CCC5E1F5CDC5D3
:10282000E2F5CEC5E3F5CFC5E4F50501C84BC92BEC
:10283000E1C514F5E2C515F5E3C516F5E4C517F5D0
:10284000000E186E000E196E200E1A6E410E1B6ED1
:102850007FEC1AF014C5CCF515C5CDF516C5CEF52F
:1028600017C5CFF50501CC51DD5D016ECD51DE59A7
:10287000026ECE51DF59036ECF51E059046E8CECDD
:1028800024F004BE4FEF14F004500310021009E1CD
:10289000020E015CD8A04FEF14F051EF14F00DEFD1
:1028A00014F0CCC52DF5CDC52EF5CEC52FF5CFC571
:1028B00030F5DDC531F5DEC532F5DFC533F5E0C5F0
:1028C00034F5DEEC21F0D8A068EF14F06AEF14F0D4
:1028D0000DEF14F00501E151DD5D016EE251DE59AD
:1028E000026EE351DF59036EE451E059046E8CEC43
:1028F00024F004BE89EF14F004500310021007E125
:10290000020E015CD8B087EF14F089EF14F0D1EF1C
:1029100014F0E1C5DDF5E2C5DEF5E3C5DFF5E4C59C
:10292000E0F5EAEF14F0E1C501F5E2C502F5E3C513
:1029300003F5E4C504F5000E056E000E066E200ECC
:10294000076E410E086E94EC1CF001C5E1F502C55E
:10295000E2F503C5E3F504C5E4F50501C807D8A011
:10296000C907E151DD5D016EE251DE59026EE351AE
:10297000DF59036EE451E059046E8CEC24F004BE80
:10298000CFEF14F004500310021007E1020E015CB7
:10299000D8B0CDEF14F0CFEF14F0D1EF14F089EFF1
:1029A00014F0DDC52DF5DEC52EF5DFC52FF5E0C52C
:1029B00030F5E1C531F5E2C532F5E3C533F5E4C5DF
:1029C00034F5DEEC21F0D8A0E8EF14F0EAEF14F0D3
:1029D00093EF14F03FC5C2F5C2C5C3F55CBEF3EF7B
:1029E00014F0F5EF14F0FBEF14F05BC5BBF55CC51C
:1029F000BCF500EF15F0000E0501BC6F060EBB6FB5
:102A0000BBC5C6F5BCC5C7F50501C64BC72B660ED1
:102A1000C319D8A40EEF15F010EF15F030EF15F034
:102A2000C9BF17EF15F015EF15F023EF15F0000EE5
:102A3000E16F000EE26F800EE36F3F0EE46F000E59
:102A4000C96F000EC86F670EC219D8B42AEF15F00F
:102A50002CEF15F030EF15F0C851C627C951C72328
:102A6000000ED16F000ED06FDDC5D2F5DEC5D3F5F7
:102A7000DFC5D4F5E0C5D5F5E1C5CCF5E2C5CDF5AA
:102A8000E3C5CEF5E4C5CFF5C1EF15F0D2C501F52C
:102A9000D3C502F5D4C503F5D5C504F5E1C505F5E3
:102AA000E2C506F5E3C507F5E4C508F594EC1CF0AE
:102AB00001C51AF502C51BF503C51CF504C51DF5B6
:102AC00078EC1FF01AC5D6F51BC5D7F51CC5D8F58F
:102AD0001DC5D9F5D6C501F5D7C502F5D8C503F58D
:102AE000D9C504F55BEC21F001C5C4F502C5C5F5F7
:102AF000D2C52DF5D3C52EF5D4C52FF5D5C530F5E6
:102B0000D6C518F5D7C519F5D8C51AF5D9C51BF519
:102B1000E1C514F5E2C515F5E3C516F5E4C517F5ED
:102B20007FEC1AF014C531F515C532F516C533F52D
:102B300017C534F540EC25F02DC5D2F52EC5D3F5DB
:102B40002FC5D4F530C5D5F5E1C501F5E2C502F5CF
:102B5000E3C503F5E4C504F5000E056E000E066E30
:102B6000200E076E410E086E94EC1CF001C5E1F5D5
:102B700002C5E2F503C5E3F504C5E4F50501D04B54
:102B8000D12BC651D05DD151800A406EC751800A09
:102B90004058D8A0CEEF15F0D0EF15F046EF15F065
:102BA000E1C514F5E2C515F5E3C516F5E4C517F55D
:102BB000000E186E000E196EA00E1A6E400E1B6EDF
:102BC0007FEC1AF014C5D6F515C5D7F516C5D8F59E
:102BD00017C5D9F5D2C52DF5D3C52EF5D4C52FF51A
:102BE000D5C530F5D6C531F5D7C532F5D8C533F5DD
:102BF000D9C534F5DEEC21F0D8B001EF16F003EFC3
:102C000016F00EEF16F0000E0501D66F000ED76F0E
:102C1000000ED86F000ED96F37EF16F0D2C501F550
:102C2000D3C502F5D4C503F5D5C504F5D6C505F55C
:102C3000D7C506F5D8C507F5D9C508F535EC23F095
:102C4000D8A025EF16F027EF16F037EF16F00501A4
:102C5000C4B12DEF16F02FEF16F037EF16F0000E7F
:102C6000D66F000ED76F000ED86F000ED96FDDC57E
:102C700001F5DEC502F5DFC503F5E0C504F5D6C5EF
:102C800005F5D7C506F5D8C507F5D9C508F51FEC74
:102C900018F001C5D2F502C5D3F503C5D4F504C5B6
:102CA000D5F5D2C52DF5D3C52EF5D4C52FF5D5C58F
:102CB00030F5000E186E000E196E200E1A6E410EC1
:102CC0001B6ECCC514F5CDC515F5CEC516F5CFC513
:102CD00017F57FEC1AF014C531F515C532F516C598
:102CE00033F517C534F5DEEC21F0D8A07AEF16F0F5
:102CF0007CEF16F0A5EF16F00501C84BC92BCCC52B
:102D000014F5CDC515F5CEC516F5CFC517F5000ED2
:102D1000186E000E196E200E1A6E410E1B6E7FEC9F
:102D20001AF014C5CCF515C5CDF516C5CEF517C5E9
:102D3000CFF5660E0501C319D8A4A1EF16F0A3EFD5
:102D400016F0A5EF16F0C64BC72BCCC5E1F5CDC5E7
:102D5000E2F5CEC5E3F5CFC5E4F5C8C5B9F5C9C5FB
:102D6000BAF5000E0501C16F000EBE6F000EBD6FFB
:102D7000000ED16F000ED06FA3EF17F0D2C501F592
:102D8000D3C502F5D4C503F5D5C504F5E1C505F5F0
:102D9000E2C506F5E3C507F5E4C508F594EC1CF0BB
:102DA00001C51AF502C51BF503C51CF504C51DF5C3
:102DB00078EC1FF01AC5D6F51BC5D7F51CC5D8F59C
:102DC0001DC5D9F5D6C501F5D7C502F5D8C503F59A
:102DD000D9C504F55BEC21F002BEFAEF16F0025003
:102DE00007E10A0E015CD8B0F8EF16F0FAEF16F022
:102DF0000AEF17F0D6C501F5D7C502F5D8C503F51A
:102E0000D9C504F55BEC21F001C5C4F502C5C5F5D3
:102E10000FEF17F0000E0501C56F090EC46F050115
:102E2000C151D8A416EF17F018EF17F040EF17F0C4
:102E3000BABF1FEF17F01DEF17F040EF17F0690E44
:102E4000DB25D96E050EDC21DA6E2E0EDF6EDB4B34
:102E5000DC2BCA07D8A0CB07010EC16F40EF17F0DB
:102E6000690EDB25D96E050EDC21DA6E300EDF6EC1
:102E7000DB4BDC2BCA07D8A0CB07BD07D8A0BE0709
:102E8000BD51BE11D8A447EF17F049EF17F030EF4E
:102E900017F0690EDB25D96E050EDC21DA6EC45100
:102EA000300FDF6EDB4BDC2BCA07D8A0CB07D2C5B7
:102EB0002DF5D3C52EF5D4C52FF5D5C530F5D6C51E
:102EC00018F5D7C519F5D8C51AF5D9C51BF5E1C54B
:102ED00014F5E2C515F5E3C516F5E4C517F57FEC65
:102EE0001AF014C531F515C532F516C533F517C5F9
:102EF00034F540EC25F02DC5D2F52EC5D3F52FC500
:102F0000D4F530C5D5F5E1C501F5E2C502F5E3C557
:102F100003F5E4C504F5000E056E000E066E200EE6
:102F2000076E410E086E94EC1CF001C5E1F502C578
:102F3000E2F503C5E3F504C5E4F50501B907D8A03A
:102F4000BA07D04BD12BC651D05DD151800A406E0B
:102F5000C751800A4058D8B0B0EF17F0B2EF17F061
:102F6000C0EF17F0DCBFBEEF17F0DC5109E14B0EEC
:102F7000DB5DD8A0BEEF17F0C0EF17F0BEEF16F084
:102F8000000ED16F4F0ED06F690ED025D96E050E91
:102F9000D121DA6E000EDF6E690E406E050E416EB5
:102FA000DB51405EDC51415AD0514024016ED15179
:102FB0004120026E690E036E050E046EDBC505F539
:102FC000DCC506F518EC25F00501DB51D05DDB6FA3
:102FD000DC51D159DC6FDA51D8A4F1EF17F0F4EFDE
:102FE00017F0010EF5EF17F0000ED06FD16BDA512C
:102FF000D8B4FDEF17F0FFEF17F00AEF18F0DB077A
:10300000D8A0DC07690EDB25D96E050EDC21DA6E4F
:10301000DAC5DFF4D051CA5FD151CB5B39C513F5A6
:103020003AC514F5690EDB25156E050EDC21166E0A
:10303000CAC517F5CBC518F51BEC24F012000450D7
:10304000800B0D6E045004240F6E03AE2AEF18F0AF
:103050002CEF18F02DEF18F00F800F50D8B433EF8D
:1030600018F035EF18F04AEF18F00F28D8A43BEF0E
:1030700018F03DEF18F045EF18F0000E016E000E4D
:10308000026E000E036E000E046E038E000E046EC0
:1030900052EF18F0000E016E000E026E000E036E6D
:1030A000000E046E0850800B0E6E0D500E18D8B432
:1030B0005CEF18F05EEF18F05FEF18F00D8C085021
:1030C00008240E6E07AE67EF18F069EF18F06AEF8C
:1030D00018F00E800E50D8B470EF18F072EF18F0A0
:1030E00087EF18F00E28D8A478EF18F07AEF18F0D0
:1030F00082EF18F0000E056E000E066E000E076ED1
:10310000000E086E078E000E086E8FEF18F0000E8E
:10311000056E000E066E000E076E000E086E0F5054
:103120000E5CD8B096EF18F098EF18F0BFEF18F0DB
:103130000DAC9DEF18F09FEF18F0A1EF18F0800E86
:103140000D1A0FC510F50EC50FF510C50EF501C50A
:1031500010F505C501F510C505F502C510F506C544
:1031600002F510C506F503C510F507C503F510C532
:1031700007F504C510F508C504F510C508F5000EDF
:10318000106E0F500EC509F50A6A095E000E0A5A44
:103190000ABED4EF18F00A5009E11A0E095CD8A053
:1031A000D4EF18F0D6EF18F00DEF19F0015002101F
:1031B00003100410D8A4DFEF18F0E2EF18F0010EAE
:1031C000E3EF18F0000E106E000E016E000E026E9E
:1031D000000E036E000E046E0EC50FF516EF19F00B
:1031E00010A0F5EF18F0F7EF18F0FDEF18F0D890F9
:1031F00010300109106EFFEF18F0D890103201A0C6
:1032000004EF19F006EF19F007EF19F0108E0434EF
:1032100004320332023201320F2A0E500F5CD8A062
:1032200014EF19F016EF19F0F0EF18F00DBC1BEFCA
:1032300019F01DEF19F05DEF19F00F50D8A423EF2E
:1032400019F025EF19F02FEF19F0000E016E000EA6
:10325000026E000E036E000E046E7EEF1AF0055033
:10326000012606500222075003220850042204A01F
:103270003CEF19F03EEF19F0EAEF19F010A043EF20
:1032800019F045EF19F04BEF19F0D8901030010903
:10329000106E4DEF19F0D890103201A052EF19F0D6
:1032A00054EF19F055EF19F0108E04340432033244
:1032B000023201320F2AEAEF19F00550015C065084
:1032C0000258075003580450800A096E0850800ABB
:1032D0000958D8B06EEF19F070EF19F09BEF19F0A4
:1032E0000150055C096E025006580A6E03500758DB
:1032F0000B6E045008580C6EFF0E0924016EFF0E71
:103300000A20026EFF0E0B20036EFF0E0C20046ECF
:10331000800E0D1A106C1050D8A491EF19F093EF95
:1033200019F0A3EF19F0010E0126000E022203226C
:103330000422A3EF19F00550015E0650025A07500F
:10334000035A0850045A0150021003100410D8A464
:10335000ACEF19F0AEEF19F0E3EF19F01050D8A46C
:10336000B4EF19F0B6EF19F0E3EF19F0000E016EAB
:10337000000E026E000E036E000E046E7EEF1AF059
:10338000D890013602360336043610AECAEF19F073
:10339000CCEF19F0CDEF19F0018010A0D2EF19F0A9
:1033A000D4EF19F0D8EF19F0D8801036DAEF19F011
:1033B000D89010360F50D8B4E0EF19F0E2EF19F0C2
:1033C000E3EF19F00F0603AEE8EF19F0EAEF19F09A
:1033D000C0EF19F0000E0E6E10AEF1EF19F0F3EF22
:1033E00019F00BEF1AF010C509F57F0E0916D8B4C5
:1033F000FCEF19F0FEEF19F002EF1AF0010E0E6E5D
:103400000BEF1AF001A007EF1AF009EF1AF00BEF1B
:103410001AF0FEEF19F00E50D8B411EF1AF013EFB6
:103420001AF03EEF1AF0010E0126000E02220322CE
:10343000042204A01EEF1AF020EF1AF03EEF1AF05B
:1034400001C509F502C50AF503C50BF504C50CF560
:103450000C340C320B320A32093209C501F50AC5A7
:1034600002F50BC503F50CC504F50F28D8B43BEFE6
:103470001AF03DEF1AF03EEF1AF00F2A0F28D8B4D9
:1034800044EF1AF046EF1AF04EEF1AF00F50D8A49E
:103490004CEF1AF04EEF1AF060EF1AF0000E016ECA
:1034A000000E026E000E036E000E046E0F50D8A4C4
:1034B0005CEF1AF05EEF1AF060EF1AF0000E0D6E7E
:1034C0000FA065EF1AF067EF1AF06AEF1AF0038E9B
:1034D0006BEF1AF0039ED8900F30046E0DAE73EFB1
:1034E0001AF075EF1AF076EF1AF0048E01C501F5A7
:1034F00002C502F503C503F504C504F51200175013
:10350000800B206E17501724266E16AE8AEF1AF025
:103510008CEF1AF08DEF1AF026802650D8B493EF76
:103520001AF095EF1AF0A8EF1AF02628D8A49BEF0E
:103530001AF09DEF1AF0A5EF1AF0000E146E000EAF
:10354000156E000E166E000E176E168EB0EF1AF086
:10355000000E146E000E156E000E166E000E176E25
:103560001B50800B201A1B501B24256E1AAEBBEF7C
:103570001AF0BDEF1AF0BEEF1AF025802550D8B42E
:10358000C4EF1AF0C6EF1AF0D9EF1AF02528D8A424
:10359000CCEF1AF0CEEF1AF0D6EF1AF0000E186E3C
:1035A000000E196E000E1A6E000E1B6E1A8EE1EFE1
:1035B0001AF0000E186E000E196E000E1A6E000E34
:1035C0001B6E2550D8B4E7EF1AF0E9EF1AF0F1EFCF
:1035D0001AF02650D8A4EFEF1AF0F1EF1AF0FBEF33
:1035E0001AF0000E146E000E156E000E166E000E10
:1035F000176E93EF1CF01A501402F3C42BF5F4C4A9
:103600002CF52B50216E226A236A246A2C50276ED7
:10361000286A296A2A6A19501502F3C42BF5F4C4E2
:103620002CF52B502126000E2222232224222C505E
:103630002726000E282229222A2218501602F3C417
:103640002BF5F4C42CF52B502126000E2222232228
:1036500024222C502726000E282229222A2223C584
:1036600024F522C523F521C522F5216A185015023B
:10367000F3C42BF5F4C42CF52B5021262C50222218
:10368000000E2322000E242219501402F3C42BF53D
:10369000F4C42CF52B5021262C502222000E23227C
:1036A000000E242223C524F522C523F521C522F5C9
:1036B000216A18501402F3C42BF5F4C42CF52B50D6
:1036C00021262C502222000E2322000E24221A50E2
:1036D0001502F3C42BF5F4C42CF52B5027262C50DF
:1036E0002822000E2922000E2A2219501602F3C4A5
:1036F0002BF5F4C42CF52B5027262C502822000E35
:103700002922000E2A221A501602F3C42BF5F4C403
:103710002CF52B501C6E2C501D6E1E6A1F6A1EC588
:103720001FF51DC51EF51CC51DF51C6A1C5027265E
:103730001D5028221E5029221F502A2221C51CF567
:1037400022C51DF523C51EF524C51FF5190EAEEFC4
:103750001BF0D8901F321E321D321C32E82EA9EF0A
:103760001BF01C5027261D5028221E5029221F50B6
:103770002A2223C524F522C523F521C522F5216A75
:10378000255026C51CF51D6A1C26000E1D22820E22
:103790001C242B6EFF0E1D202C6EE4EF1BF0D89026
:1037A0002736283629362A3624AED9EF1BF0DBEF30
:1037B0001BF0DCEF1BF02780D89021362236233611
:1037C00024362B06D8A02C0629AEE9EF1BF0EBEF30
:1037D0001BF0CFEF1BF0000E256E24AEF2EF1BF0B6
:1037E000F4EF1BF018EF1CF0FF0E21141C6EFF0EFF
:1037F00022141D6EFF0E23141E6E7F0E24141F6EE6
:103800001C501D101E101F10D8B409EF1CF00BEF38
:103810001CF00FEF1CF0010E256E18EF1CF027A016
:1038200014EF1CF016EF1CF018EF1CF00BEF1CF05F
:103830002550D8B41EEF1CF020EF1CF044EF1CF014
:10384000010E2726000E282229222A222AA02BEF49
:103850001CF02DEF1CF044EF1CF027C51CF528C50B
:103860001DF529C51EF52AC51FF51F341F321E324E
:103870001D321C321CC527F51DC528F51EC529F5AE
:103880001FC52AF52B4A2C2A2CBE4FEF1CF02C50BA
:1038900008E12B28D8A04FEF1CF051EF1CF05BEF94
:1038A0001CF0000E276E000E286E800E296E7F0E13
:1038B0002A6E89EF1CF02CBE68EF1CF02C5006E13C
:1038C0002B04D8B066EF1CF068EF1CF074EF1CF00E
:1038D000000E276E000E286E000E296E000E2A6E56
:1038E000000E206E89EF1CF02BC526F5FF0E271663
:1038F000FF0E28167F0E2916000E2A1626A083EF2B
:103900001CF085EF1CF086EF1CF0298ED890263035
:103910002A6E20502A1227C514F528C515F529C589
:1039200016F52AC517F512000450800B116E0450CD
:103930000424186E03AE9FEF1CF0A1EF1CF0A2EF61
:103940001CF018801850D8B4A8EF1CF0AAEF1CF097
:10395000BFEF1CF01828D8A4B0EF1CF0B2EF1CF099
:10396000BAEF1CF0000E016E000E026E000E036E28
:10397000000E046E038E000E046EC7EF1CF0000EE6
:10398000016E000E026E000E036E000E046E0850F3
:10399000800B111A08500824196E07AED2EF1CF0E4
:1039A000D4EF1CF0D5EF1CF019801950D8B4DBEF20
:1039B0001CF0DDEF1CF0F2EF1CF01928D8A4E3EFA7
:1039C0001CF0E5EF1CF0EDEF1CF0000E056E000E94
:1039D000066E000E076E000E086E078E000E086E53
:1039E000FAEF1CF0000E056E000E066E000E076E5C
:1039F000000E086E0550061007100810D8A403EF3B
:103A00001DF005EF1DF01DEF1DF0000E016E000E04
:103A1000026E000E036E000E046E800E03127F0E07
:103A200004121150041201C501F502C502F503C5C7
:103A300003F504C504F560EF1EF01850D8A423EF79
:103A40001DF025EF1DF02FEF1DF0000E016E000E92
:103A5000026E000E036E000E046E60EF1EF0195031
:103A600018C509F50A6A095E000E0A5A7F0E092474
:103A7000126E000E0A20136E01C50DF502C50EF57B
:103A800003C50FF504C510F5000E016E000E026EA1
:103A9000000E036E000E046E000E146E000E156E06
:103AA000000E166E000E176E000E196E90EF1DF0D0
:103AB0001950D8B45EEF1DF060EF1DF077EF1DF0E8
:103AC000D8900D360E360F361036D89001360236A5
:103AD0000336043617AE6FEF1DF071EF1DF072EF75
:103AE0001DF00180D890143615361636173605505D
:103AF0000D5C06500E5807500F5808501058D8A0AB
:103B000084EF1DF086EF1DF08FEF1DF0178C055030
:103B10000D5E06500E5A07500F5A0850105A192AB7
:103B2000190E196496EF1DF098EF1DF058EF1DF077
:103B30000D500E100F101010D8B4A1EF1DF0A3EF10
:103B40001DF0BBEF1DF01480BBEF1DF0D8900136C7
:103B500002360336043617AEB0EF1DF0B2EF1DF09B
:103B6000B3EF1DF00180D89014361536163617368F
:103B70001206D8A0130603AEC0EF1DF0C2EF1DF071
:103B8000A6EF1DF0000E196E17AEC9EF1DF0CBEFBA
:103B90001DF0EFEF1DF0FF0E1414096EFF0E15144B
:103BA0000A6EFF0E16140B6E7F0E17140C6E095062
:103BB0000A100B100C10D8B4E0EF1DF0E2EF1DF06E
:103BC000E6EF1DF0010E196EEFEF1DF001A0EBEF17
:103BD0001DF0EDEF1DF0EFEF1DF0E2EF1DF01950BD
:103BE000D8B4F5EF1DF0F7EF1DF01BEF1EF0010E3E
:103BF0000126000E02220322042204A002EF1EF07E
:103C000004EF1EF01BEF1EF001C509F502C50AF511
:103C100003C50BF504C50CF50C340C320B320A321B
:103C2000093209C501F50AC502F50BC503F50CC536
:103C300004F5124A132A13BE26EF1EF0135008E1B2
:103C40001228D8A026EF1EF028EF1EF033EF1EF04A
:103C5000000E136E1268000E016E000E026E000E52
:103C6000036E000E046E13BE40EF1EF0135006E10B
:103C70001204D8B03EEF1EF040EF1EF04EEF1EF0E3
:103C8000000E136E000E126E000E016E000E026E1C
:103C9000000E036E000E046E000E116E12C518F5B4
:103CA00018A055EF1EF057EF1EF05AEF1EF0038ECE
:103CB0005BEF1EF0039ED8901830046E11EF1DF0DC
:103CC0001200E7C5D9F4E8C5DAF4DEC4F6F4DDC4C1
:103CD000F7F4000EF86E0800F550250AD8A473EF2B
:103CE0001EF075EF1EF061EF1FF0E7C5D9F4E8C5CF
:103CF000DAF4DE2A000EDD22000E5A6E000E596E36
:103D000059C568F55B685C68E7C5D9F4E8C5DAF4BD
:103D1000DEC44DF5DDC44EF54DC5F6F44EC5F7F4E1
:103D2000000EF86E0800F5C44CF5A3EF1EF04D4AE6
:103D30004E2ABCEF1EF06C0E4C6EBCEF1EF0000E57
:103D40004C6EBCEF1EF04C50426E436A4350000A6A
:103D5000D8B4ADEF1EF09FEF1EF042504C0AD8B41D
:103D600097EF1EF02A0AD8B49BEF1EF00A0AD8B4C7
:103D700097EF1EF09FEF1EF04DC5F6F44EC5F7F419
:103D8000000EF86E0800F550660AD8A4CAEF1EF0BF
:103D9000CCEF1EF058EF1FF002EF1FF0E9C5D9F489
:103DA000EAC5DAF4DFC442F5040EDE26DFC443F5CB
:103DB000000EDD2242C5D9F443C5DAF4DEC444F571
:103DC000DEC445F5DEC446F5DEC447F517EF1FF047
:103DD000E9C5D9F4EAC5DAF4DFC442F5040EDE26FB
:103DE000DFC443F5000EDD2242C5D9F443C5DAF441
:103DF000DEC444F5DEC445F5DEC446F5DEC447F551
:103E000017EF1FF04C50426E436A4350000AD8B47B
:103E10000CEF1FF017EF1FF042504C0AD8B4E8EF38
:103E20001EF0200AD8B4CEEF1EF017EF1FF0010EDF
:103E30004D24426E000E4E20436EE7C5D9F4E8C50E
:103E4000DAF442C5DEF443C5DDF440EF1FF0E5C50A
:103E500039F5E6C53AF544C53BF545C53CF546C5DB
:103E60003DF547C53EF54DC5F6F44EC5F7F4000ED9
:103E7000F86E0800F5C43FF50EEC13F077EF1FF075
:103E80004DC5F6F44EC5F7F4000EF86E0800F55077
:103E9000426E436A4350000AD8B451EF1FF058EF06
:103EA0001FF04250660AD8B427EF1FF058EF1FF0FA
:103EB000E7C5D9F4E8C5DAF4DE2A000EDD2277EF93
:103EC0001FF0E7C5D9F4E8C5DAF4DEC4F6F4DDC4C2
:103ED000F7F4000EF86E0800F550036E046AE5C5AD
:103EE00005F5E6C506F58AEC23F058EF1FF0120041
:103EF00060C52AF561C52BF562C52CF563C52DF5A6
:103F00001AC52AF51BC52BF51CC52CF51DC52DF5AD
:103F1000810E1E6EFF0E1F6E2AC520F52BC521F5E2
:103F20002CC522F52DC523F5180E9CEF1FF0D89057
:103F30002332223221322032E82E97EF1FF0205018
:103F40001E24286E000E1F20296E29BEB1EF1FF01F
:103F5000295009E1170E285CD8A0B1EF1FF0B3EF8C
:103F60001FF0BDEF1FF01AC51AF51BC51BF51CC5C8
:103F70001CF51DC51DF580EF20F029BEC2EF1FF016
:103F8000C4EF1FF034EF20F028C51EF5FF0E1F6EA2
:103F9000FF0E206E7F0E216E000E226E1E66D3EF86
:103FA0001FF0DBEF1FF022342232213220321F3289
:103FB0001E2ECEEF1FF01FC524F520C525F521C507
:103FC00026F522C527F524502A141E6E25502B14E1
:103FD0001F6E26502C14206E27502D14216E1E505B
:103FE0001F1020102110D8A4F8EF1FF0FAEF1FF0D7
:103FF000FCEF1FF0B3EF1FF02AC51EF52BC51FF510
:104000002CC520F52DC521F5200E0CEF20F0D89001
:10401000213220321F321E32E82E07EF20F01E50D0
:104020001F1020102110D8B418EF20F01AEF20F044
:1040300022EF20F024502A2625502B2226502C2215
:1040400027502D22241C1E6E251C1F6E261C206E40
:10405000271C216E1E502A161F502B1620502C167E
:1040600021502D1678EF20F02AC51EF52BC51FF51F
:104070002CC520F52DC521F5200E44EF20F0D89059
:10408000213220321F321E32E82E3FEF20F01E5028
:104090001F1020102110D8A450EF20F052EF20F074
:1040A0005CEF20F0000E2A6E000E2B6E000E2C6EC0
:1040B000000E2D6E78EF20F0D8902A341E6E2B342F
:1040C0001F6E2C34206E2D34216E1E501F102010B8
:1040D0002110D8B46EEF20F070EF20F078EF20F0D0
:1040E000000E2A6E000E2B6E800E2C6EBF0E2D6EF3
:1040F0002AC51AF52BC51BF52CC51CF52DC51DF5BC
:1041000012000E6E0E50D8B488EF20F08AEF20F027
:10411000ACEF20F009BE91EF20F08FEF20F0ACEF74
:1041200020F006C50AF507C50BF508C50CF509C54D
:104130000DF50A1E0B1E0C1E0D1E0A2A000E0B2268
:104140000C220D220AC510F50BC511F50CC512F590
:104150000DC513F5B4EF20F006C510F507C511F530
:1041600008C512F509C513F5065007100810091007
:10417000D8A4BDEF20F0BFEF20F0C9EF20F0000E73
:10418000066E000E076E000E086E000E096E5AEFE6
:1041900021F0960E0F6ED3EF20F00F2AD890133235
:1041A000123211321032000E10140A6E000E111469
:1041B0000B6E000E12140C6EFE0E13140D6E0A50D0
:1041C0000B100C100D10D8A4E8EF20F0EAEF20F04F
:1041D000CDEF20F0F8EF20F00F2A010E1026000E90
:1041E000112212221322D8901332123211321032BD
:1041F000000E10140A6E000E11140B6E000E121435
:104200000C6EFF0E13140D6E0A500B100C100D10D7
:10421000D8A40DEF21F00FEF21F0ECEF20F017EF15
:1042200021F00F06D890103611361236133612BE12
:104230001CEF21F01EEF21F026EF21F0020E0F609F
:1042400024EF21F026EF21F011EF21F00FB02BEF3A
:1042500021F02DEF21F02EEF21F0129ED8900F3299
:104260000FC50AF50B6A0C6A0D6A0AC50DF50C6AD2
:104270000B6A0A6A0A5010120B5011120C501212DB
:104280000D5013120E50D8B448EF21F04AEF21F030
:1042900052EF21F009BE51EF21F04FEF21F052EF24
:1042A00021F0138E10C506F511C507F512C508F5E6
:1042B00013C509F51200033404340A6E0A50D8A459
:1042C00064EF21F066EF21F070EF21F0000E016E37
:1042D000000E026E000E036E000E046EDDEF21F084
:1042E00001C505F502C506F503C507F504C508F5C2
:1042F000200E80EF21F0D8900832073206320532C6
:10430000E82E7BEF21F00550096E038EFF0E01169B
:10431000FF0E0216FF0E0316000E0416960E0A5E1E
:104320000ABE97EF21F095EF21F0ADEF21F00A5092
:10433000800A970FD8B09FEF21F0A1EF21F0A3EFF3
:1043400021F066EF21F0D8900432033202320132BC
:104350000A3EA3EF21F0C5EF21F01F0E0A64B3EF70
:1043600021F0B5EF21F0BDEF21F066EF21F0D890FC
:1043700001360236033604360A060A50D8A4C3EFC3
:1043800021F0C5EF21F0B7EF21F00950D8B4CBEF01
:1043900021F0CDEF21F0D5EF21F0041E031E021E07
:1043A000016C000E02220322042201C501F502C5A0
:1043B00002F503C503F504C504F51200000E2D1423
:1043C000356E000E2E14366E800E2F14376E7F0E53
:1043D0003014386E3550361037103810D8A4F3EF3B
:1043E00021F0F5EF21F0FDEF21F0000E2D6E000E13
:1043F0002E6E000E2F6E000E306E000E3114356ED4
:10440000000E3214366E800E3314376E7F0E341465
:10441000386E3550361037103810D8A412EF22F00D
:1044200014EF22F01CEF22F0000E316E000E326EFF
:10443000000E336E000E346E30AE21EF22F023EF0B
:1044400022F02CEF22F02D6C2E1ED8B02E2A2F1E1B
:10445000D8B02F2A800E305634AE31EF22F033EF31
:1044600022F03CEF22F0316C321ED8B0322A331EDB
:10447000D8B0332A800E3456000E2D1A000E2E1A94
:10448000000E2F1A800E301A000E311A000E321A4A
:10449000000E331A800E341A31502D5C32502E58D3
:1044A00033502F5834503058D8B059EF22F05BEFCA
:1044B00022F05EEF22F0D8905FEF22F0D880120059
:1044C00064C50BF565C50CF566C50DF567C50EF53C
:1044D00001C50BF502C50CF503C50DF504C50EF5B8
:1044E0000BC505F50CC506F50DC507F50EC508F598
:1044F000180E80EF22F0D8900832073206320532CB
:10450000E82E7BEF22F00550096E0A6A09500A1066
:10451000D8A48DEF22F08FEF22F0AFEF22F0D890E9
:104520000B34056E0C34066E0D34076E0E34086EB7
:104530000550061007100810D8A4A1EF22F0A3EF31
:1045400022F0A9EF22F0000E026E020E016EDEEFE5
:1045500022F0000E026E030E016EDEEF22F009283B
:104560000A10D8A4B6EF22F0B8EF22F0DAEF22F06A
:104570000BC505F50CC506F50DC507F50EC508F507
:10458000090ED8900536063607360836E82EC1EFF4
:1045900022F00550061007100810D8B4D2EF22F010
:1045A000D5EF22F0010ED6EF22F0000E016E026A66
:1045B000DEEF22F0000E026E040E016E1200000EFD
:1045C000C26E000EC16E000EBE6E000EC36E000EF7
:1045D000BF6E000EC06E070ECA6EFE0ECB6EF70EDB
:1045E000C66EC768C868C968040118691069086997
:1045F000070E206F2869EF0E006F000E196F000E76
:10460000296F000E216F000E096F000E016F000E62
:10461000116F000E0201896F000E886F000E876F08
:10462000000E866F000E0401226F000E2A6F000E2E
:10463000026F000E0A6F000E126F000E1A6F0369F0
:104640000B6913691B69070E236F2B6904690C69D9
:1046500014691C690F0E246F2C69260E0201046F69
:10466000260E296F040E766F1200000E0114096EDB
:10467000000E02140A6E800E03140B6E7F0E0414DB
:104680000C6E09500A100B100C10D8A44AEF23F03E
:104690004CEF23F054EF23F0000E016E000E026E7B
:1046A000000E036E000E046E000E0514096E000E5F
:1046B00006140A6E800E07140B6E7F0E08140C6E23
:1046C00009500A100B100C10D8A469EF23F06BEFFF
:1046D00023F073EF23F0000E056E000E066E000E41
:1046E000076E000E086E055001180FE10650021803
:1046F0000CE10750031809E108500418D8B483EFFF
:1047000023F085EF23F088EF23F0D89089EF23F092
:10471000D880120005500610D8B491EF23F093EF23
:1047200023F09CEF23F005500610D8A49AEF23F055
:104730009CEF23F0A1EF23F0035048EC26F0D4EFD8
:1047400023F020EE09F00550D9260650DA22DE507B
:10475000DE10D8B4AEEF23F0B0EF23F0CBEF23F0B0
:1047600020EE09F00550D9260650DA2210EE03F0AB
:104770000550E1260650E222DE50E65CE650800A53
:104780000B6EDE50800A0B58D8B0C9EF23F0CBEF88
:1047900023F0D4EF23F020EE03F00550D926065085
:1047A000DA22DE2A000EDD22120028EC26F0070EA7
:1047B000C3EC25F001C506F502C507F5086A096ACC
:1047C000000E81EC20F006C514F507C515F508C5E7
:1047D00016F509C517F5E70E186E2E0E196E530E55
:1047E0001A6E3A0E1B6E7FEC1AF014C555F515C5FE
:1047F00056F516C557F517C558F5010E0501F16FA9
:10480000260EF26F55C5F3F556C5F4F557C5F5F507
:1048100058C5F6F5DBEC25F0060E546E130E536EFC
:10482000AE0EE82EFED7532EFCD7542EFAD7D7EF74
:1048300023F0FEEFFFF018BE20EF24F022EF24F06B
:1048400028EF24F017C51CF518C51DF52CEF24F032
:10485000000E1D6E000E1C6E000E1B6E000E1A6EFA
:104860003EEF24F0000E046E200E036E13C505F516
:1048700014C506F58AEC23F01A4A1B2A1C501A5C50
:104880001B50800A196E1D50800A1958D8A04BEF92
:1048900024F04DEF24F032EF24F015C50CF516C5C9
:1048A0000DF513C50EF514C50FF585EC25F01200B6
:1048B000000E0201CB6F000ECD6F000ECF6FB00E59
:1048C000D16F800ED26F000ED36F670ED46F000EC3
:1048D000D56F000ED66F000ED76F000ED86F000E8A
:1048E000D96F000E016E000E026E000E036E3AECE0
:1048F00026F0000E016E000E026E000E036E33EC09
:1049000026F0000E016E000E026E000E036E41ECEA
:1049100026F0000E5D6E120004BE9BEF24F00450E2
:104920000310021006E10104D8B099EF24F09BEFC8
:1049300024F0B6EF24F001C505F502C506F503C560
:1049400007F504C508F5051E061E071E081E052AE4
:10495000000E06220722082205C501F506C502F54C
:1049600007C503F508C504F5BEEF24F001C501F540
:1049700002C502F503C503F504C504F51200000ED7
:104980000301D96F000EDA6F000EDB6F000EDC6FD3
:10499000000EDF6F000EE06F000EE56F000EE76F98
:1049A000000EEC6F020EEE6F000EEF6F000EF06F58
:1049B000000EF16F000EF26F000EF46F100EF56F27
:1049C000000EF66F000EF76F000EF86F000EF96F15
:1049D000000EFA6F940EF36F1200EDC54FF5EEC5A1
:1049E00050F502EF25F0EBC5E5F5ECC5E6F54F0E09
:1049F0000501E76F050EE86FEFC5E9F5F0C5EAF5CB
:104A000061EC1EF04FC5F6F450C5F7F4000EF86ED9
:104A10000800F5500009D8A410EF25F012EF25F09A
:104A2000F3EF24F0000E0501EC6F000EEB6F1200A7
:104A300003C509F504C50AF501C507F502C508F562
:104A400032EF25F009C5D9F40AC5DAF4DF500B6E50
:104A5000094A0A2A07C5D9F408C5DAF40BC5DFF4F8
:104A6000074A082A0506D8A00606052806E10628F2
:104A7000D8A43DEF25F03FEF25F022EF25F01200FE
:104A8000000E311A000E321A000E331A800E341A3C
:104A90002DC501F52EC502F52FC503F530C504F56A
:104AA00031C505F532C506F533C507F534C508F53A
:104AB0001FEC18F001C52DF502C52EF503C52FF525
:104AC00004C530F5120003C505F504C506F501C59A
:104AD00007F502C508F505C5F6F406C5F7F4054A5D
:104AE000062A000EF86E07C5D9F408C5DAF4074A9D
:104AF000082A0800F5C4DFF4DF50D8A482EF25F0BF
:104B000084EF25F06BEF25F01200000E126E000E00
:104B1000116E96EF25F010C503F5046A0EC505F574
:104B20000FC506F58AEC23F0114A122A11500C2405
:104B3000D96E12500D20DA6EDF50106E1050D8A4CE
:104B4000A4EF25F0A6EF25F08BEF25F01200015021
:104B5000021003100410D8B4B0EF25F0B2EF25F026
:104B6000BAEF25F0000E011A000E021A000E031A09
:104B7000800E041A01C501F502C502F503C503F54F
:104B800004C504F51200056E05C5ECF30301F38FAF
:104B9000F39DF381F3B1CFEF25F0D1EF25F0CAEF0C
:104BA00025F0EB51046E036AEA510324016E000EF6
:104BB0000420026E1200F30E516E050E526E000EAE
:104BC0000501EB6F000EEC6FF1C5EDF5F2C5EEF5EA
:104BD000510EEF6F050EF06FEDEC24F01200000E99
:104BE0000001606F000E616F000E636F000E646F56
:104BF000000E656F000E666F000E676F000E686F27
:104C0000120001EE60F1590EEE6AE806FDE15D6A00
:104C10005C6A5B6A5A6A596A0001D5EF23F0620E3A
:104C20000001AD6F000EAF6F000EB36F050EB16FD8
:104C3000000EB06F000EAC6F1200016EB7A223EF32
:104C400026F025EF26F01EEF26F001C5C9F212006E
:104C5000EFEC25F0DFEC22F00FEC26F0BFEC24F0B7
:104C600058EC24F0120001C5FAF502C5FBF503C5A6
:104C7000FCF5120001C5FDF502C5FEF503C5FFF503
:104C8000120001C5F7F502C5F8F503C5F9F51200E4
:0A4C9000026E02501DEC26F0120027
:020000040001F9
:04FFFC0001EF26F0FB
:020000040020DA
:10000000FF0FFF0FFF0FFF0FFF0FFF0FFF0FFF0F80
:10001000FF0FFF0FFF0FFF0FFF0FFF0FFF0FFF0F70
:10002000FF0FFF0FFF0FFF0FFF0FFF0FFF0FFF0F60
:10003000FF0FFF0FFF0FFF0FFF0FFF0FFF0FFF0F50
:020000040030CA
:0A000000ECFFF7FF9FFFFFFFFFFF7B
:00000001FF
